{
  "_format": "hh-sol-artifact-1",
  "contractName": "RapNameNFTv2",
  "sourceName": "contracts/RapNameNFTv2.sol",
  "abi": [
    {
      "inputs": [],
      "stateMutability": "nonpayable",
      "type": "constructor"
    },
    {
      "anonymous": false,
      "inputs": [
        {
          "indexed": true,
          "internalType": "address",
          "name": "owner",
          "type": "address"
        },
        {
          "indexed": true,
          "internalType": "address",
          "name": "approved",
          "type": "address"
        },
        {
          "indexed": true,
          "internalType": "uint256",
          "name": "tokenId",
          "type": "uint256"
        }
      ],
      "name": "Approval",
      "type": "event"
    },
    {
      "anonymous": false,
      "inputs": [
        {
          "indexed": true,
          "internalType": "address",
          "name": "owner",
          "type": "address"
        },
        {
          "indexed": true,
          "internalType": "address",
          "name": "operator",
          "type": "address"
        },
        {
          "indexed": false,
          "internalType": "bool",
          "name": "approved",
          "type": "bool"
        }
      ],
      "name": "ApprovalForAll",
      "type": "event"
    },
    {
      "anonymous": false,
      "inputs": [
        {
          "indexed": true,
          "internalType": "address",
          "name": "previousOwner",
          "type": "address"
        },
        {
          "indexed": true,
          "internalType": "address",
          "name": "newOwner",
          "type": "address"
        }
      ],
      "name": "OwnershipTransferred",
      "type": "event"
    },
    {
      "anonymous": false,
      "inputs": [
        {
          "indexed": true,
          "internalType": "address",
          "name": "from",
          "type": "address"
        },
        {
          "indexed": true,
          "internalType": "address",
          "name": "to",
          "type": "address"
        },
        {
          "indexed": true,
          "internalType": "uint256",
          "name": "tokenId",
          "type": "uint256"
        }
      ],
      "name": "Transfer",
      "type": "event"
    },
    {
      "inputs": [],
      "name": "MAX_PURCHASE",
      "outputs": [
        {
          "internalType": "uint256",
          "name": "",
          "type": "uint256"
        }
      ],
      "stateMutability": "view",
      "type": "function"
    },
    {
      "inputs": [],
      "name": "MAX_SUPPLY",
      "outputs": [
        {
          "internalType": "uint256",
          "name": "",
          "type": "uint256"
        }
      ],
      "stateMutability": "view",
      "type": "function"
    },
    {
      "inputs": [],
      "name": "PRICE",
      "outputs": [
        {
          "internalType": "uint256",
          "name": "",
          "type": "uint256"
        }
      ],
      "stateMutability": "view",
      "type": "function"
    },
    {
      "inputs": [
        {
          "internalType": "address",
          "name": "to",
          "type": "address"
        },
        {
          "internalType": "uint256",
          "name": "tokenId",
          "type": "uint256"
        }
      ],
      "name": "approve",
      "outputs": [],
      "stateMutability": "nonpayable",
      "type": "function"
    },
    {
      "inputs": [
        {
          "internalType": "address",
          "name": "owner",
          "type": "address"
        }
      ],
      "name": "balanceOf",
      "outputs": [
        {
          "internalType": "uint256",
          "name": "",
          "type": "uint256"
        }
      ],
      "stateMutability": "view",
      "type": "function"
    },
    {
      "inputs": [
        {
          "internalType": "uint256",
          "name": "tokenId",
          "type": "uint256"
        }
      ],
      "name": "getApproved",
      "outputs": [
        {
          "internalType": "address",
          "name": "",
          "type": "address"
        }
      ],
      "stateMutability": "view",
      "type": "function"
    },
    {
      "inputs": [],
      "name": "getCurrentTokenId",
      "outputs": [
        {
          "internalType": "uint256",
          "name": "",
          "type": "uint256"
        }
      ],
      "stateMutability": "view",
      "type": "function"
    },
    {
      "inputs": [
        {
          "internalType": "address",
          "name": "owner",
          "type": "address"
        },
        {
          "internalType": "address",
          "name": "operator",
          "type": "address"
        }
      ],
      "name": "isApprovedForAll",
      "outputs": [
        {
          "internalType": "bool",
          "name": "",
          "type": "bool"
        }
      ],
      "stateMutability": "view",
      "type": "function"
    },
    {
      "inputs": [
        {
          "internalType": "uint256",
          "name": "amount",
          "type": "uint256"
        }
      ],
      "name": "mint",
      "outputs": [],
      "stateMutability": "payable",
      "type": "function"
    },
    {
      "inputs": [],
      "name": "name",
      "outputs": [
        {
          "internalType": "string",
          "name": "",
          "type": "string"
        }
      ],
      "stateMutability": "view",
      "type": "function"
    },
    {
      "inputs": [],
      "name": "owner",
      "outputs": [
        {
          "internalType": "address",
          "name": "",
          "type": "address"
        }
      ],
      "stateMutability": "view",
      "type": "function"
    },
    {
      "inputs": [],
      "name": "ownerClaim",
      "outputs": [],
      "stateMutability": "nonpayable",
      "type": "function"
    },
    {
      "inputs": [
        {
          "internalType": "uint256",
          "name": "tokenId",
          "type": "uint256"
        }
      ],
      "name": "ownerOf",
      "outputs": [
        {
          "internalType": "address",
          "name": "",
          "type": "address"
        }
      ],
      "stateMutability": "view",
      "type": "function"
    },
    {
      "inputs": [],
      "name": "renounceOwnership",
      "outputs": [],
      "stateMutability": "nonpayable",
      "type": "function"
    },
    {
      "inputs": [
        {
          "internalType": "address",
          "name": "from",
          "type": "address"
        },
        {
          "internalType": "address",
          "name": "to",
          "type": "address"
        },
        {
          "internalType": "uint256",
          "name": "tokenId",
          "type": "uint256"
        }
      ],
      "name": "safeTransferFrom",
      "outputs": [],
      "stateMutability": "nonpayable",
      "type": "function"
    },
    {
      "inputs": [
        {
          "internalType": "address",
          "name": "from",
          "type": "address"
        },
        {
          "internalType": "address",
          "name": "to",
          "type": "address"
        },
        {
          "internalType": "uint256",
          "name": "tokenId",
          "type": "uint256"
        },
        {
          "internalType": "bytes",
          "name": "_data",
          "type": "bytes"
        }
      ],
      "name": "safeTransferFrom",
      "outputs": [],
      "stateMutability": "nonpayable",
      "type": "function"
    },
    {
      "inputs": [
        {
          "internalType": "address",
          "name": "operator",
          "type": "address"
        },
        {
          "internalType": "bool",
          "name": "approved",
          "type": "bool"
        }
      ],
      "name": "setApprovalForAll",
      "outputs": [],
      "stateMutability": "nonpayable",
      "type": "function"
    },
    {
      "inputs": [
        {
          "internalType": "string[]",
          "name": "names",
          "type": "string[]"
        }
      ],
      "name": "setRapNames",
      "outputs": [],
      "stateMutability": "nonpayable",
      "type": "function"
    },
    {
      "inputs": [
        {
          "internalType": "bytes4",
          "name": "interfaceId",
          "type": "bytes4"
        }
      ],
      "name": "supportsInterface",
      "outputs": [
        {
          "internalType": "bool",
          "name": "",
          "type": "bool"
        }
      ],
      "stateMutability": "view",
      "type": "function"
    },
    {
      "inputs": [],
      "name": "symbol",
      "outputs": [
        {
          "internalType": "string",
          "name": "",
          "type": "string"
        }
      ],
      "stateMutability": "view",
      "type": "function"
    },
    {
      "inputs": [
        {
          "internalType": "uint256",
          "name": "index",
          "type": "uint256"
        }
      ],
      "name": "tokenByIndex",
      "outputs": [
        {
          "internalType": "uint256",
          "name": "",
          "type": "uint256"
        }
      ],
      "stateMutability": "view",
      "type": "function"
    },
    {
      "inputs": [
        {
          "internalType": "address",
          "name": "owner",
          "type": "address"
        },
        {
          "internalType": "uint256",
          "name": "index",
          "type": "uint256"
        }
      ],
      "name": "tokenOfOwnerByIndex",
      "outputs": [
        {
          "internalType": "uint256",
          "name": "",
          "type": "uint256"
        }
      ],
      "stateMutability": "view",
      "type": "function"
    },
    {
      "inputs": [
        {
          "internalType": "uint256",
          "name": "tokenId",
          "type": "uint256"
        }
      ],
      "name": "tokenURI",
      "outputs": [
        {
          "internalType": "string",
          "name": "",
          "type": "string"
        }
      ],
      "stateMutability": "view",
      "type": "function"
    },
    {
      "inputs": [],
      "name": "totalSupply",
      "outputs": [
        {
          "internalType": "uint256",
          "name": "",
          "type": "uint256"
        }
      ],
      "stateMutability": "view",
      "type": "function"
    },
    {
      "inputs": [
        {
          "internalType": "address",
          "name": "from",
          "type": "address"
        },
        {
          "internalType": "address",
          "name": "to",
          "type": "address"
        },
        {
          "internalType": "uint256",
          "name": "tokenId",
          "type": "uint256"
        }
      ],
      "name": "transferFrom",
      "outputs": [],
      "stateMutability": "nonpayable",
      "type": "function"
    },
    {
      "inputs": [
        {
          "internalType": "address",
          "name": "newOwner",
          "type": "address"
        }
      ],
      "name": "transferOwnership",
      "outputs": [],
      "stateMutability": "nonpayable",
      "type": "function"
    },
    {
      "inputs": [
        {
          "internalType": "address",
          "name": "_owner",
          "type": "address"
        }
      ],
      "name": "walletOfOwner",
      "outputs": [
        {
          "internalType": "uint256[]",
          "name": "",
          "type": "uint256[]"
        }
      ],
      "stateMutability": "view",
      "type": "function"
    }
  ],
  "bytecode": "0x6080604052604051806080016040528073984c74d1eb9942736ca899fc33a3476bda9bdbce73ffffffffffffffffffffffffffffffffffffffff1673ffffffffffffffffffffffffffffffffffffffff16815260200173984c74d1eb9942736ca899fc33a3476bda9bdbce73ffffffffffffffffffffffffffffffffffffffff1673ffffffffffffffffffffffffffffffffffffffff16815260200173236bc95dd51b2c658701bf195699c8f30142cd4273ffffffffffffffffffffffffffffffffffffffff1673ffffffffffffffffffffffffffffffffffffffff16815260200173b191271baac4f10bec72fb89e62528b6de68508d73ffffffffffffffffffffffffffffffffffffffff1673ffffffffffffffffffffffffffffffffffffffff16815250600d906004620001379291906200030f565b503480156200014557600080fd5b506040518060400160405280600a81526020017f5261704e616d654e4654000000000000000000000000000000000000000000008152506040518060400160405280600481526020017f524e4654000000000000000000000000000000000000000000000000000000008152508160009080519060200190620001ca9291906200039e565b508060019080519060200190620001e39291906200039e565b50505062000206620001fa6200022b60201b60201c565b6200023360201b60201c565b6001600b8190555062000225600c620002f960201b62001e971760201c565b620004b3565b600033905090565b6000600a60009054906101000a900473ffffffffffffffffffffffffffffffffffffffff16905081600a60006101000a81548173ffffffffffffffffffffffffffffffffffffffff021916908373ffffffffffffffffffffffffffffffffffffffff1602179055508173ffffffffffffffffffffffffffffffffffffffff168173ffffffffffffffffffffffffffffffffffffffff167f8be0079c531659141344cd1fd0a4f28419497f9722a3daafe3b4186f6b6457e060405160405180910390a35050565b6001816000016000828254019250508190555050565b8280548282559060005260206000209081019282156200038b579160200282015b828111156200038a5782518260006101000a81548173ffffffffffffffffffffffffffffffffffffffff021916908373ffffffffffffffffffffffffffffffffffffffff1602179055509160200191906001019062000330565b5b5090506200039a91906200042f565b5090565b828054620003ac906200044e565b90600052602060002090601f016020900481019282620003d057600085556200041c565b82601f10620003eb57805160ff19168380011785556200041c565b828001600101855582156200041c579182015b828111156200041b578251825591602001919060010190620003fe565b5b5090506200042b91906200042f565b5090565b5b808211156200044a57600081600090555060010162000430565b5090565b600060028204905060018216806200046757607f821691505b602082108114156200047e576200047d62000484565b5b50919050565b7f4e487b7100000000000000000000000000000000000000000000000000000000600052602260045260246000fd5b614fb880620004c36000396000f3fe60806040526004361061019c5760003560e01c80636352211e116100ec578063a0712d681161008a578063c87b56dd11610064578063c87b56dd146105bb578063e985e9c5146105f8578063f2fde38b14610635578063fa8e9bdb1461065e5761019c565b8063a0712d681461054d578063a22cb46514610569578063b88d4fde146105925761019c565b8063715018a6116100c6578063715018a6146104b55780638d859f3e146104cc5780638da5cb5b146104f757806395d89b41146105225761019c565b80636352211e1461041057806370a082311461044d5780637146bd081461048a5761019c565b80632f745c5911610159578063438b630011610133578063438b6300146103545780634dbe5889146103915780634f6ccce7146103a857806356189236146103e55761019c565b80632f745c59146102c357806332cb6b0c1461030057806342842e0e1461032b5761019c565b806301ffc9a7146101a157806306fdde03146101de578063081812fc14610209578063095ea7b31461024657806318160ddd1461026f57806323b872dd1461029a575b600080fd5b3480156101ad57600080fd5b506101c860048036038101906101c391906135ee565b610687565b6040516101d59190613de5565b60405180910390f35b3480156101ea57600080fd5b506101f3610701565b6040516102009190613e00565b60405180910390f35b34801561021557600080fd5b50610230600480360381019061022b9190613640565b610793565b60405161023d9190613d5c565b60405180910390f35b34801561025257600080fd5b5061026d60048036038101906102689190613571565b610818565b005b34801561027b57600080fd5b50610284610930565b6040516102919190614162565b60405180910390f35b3480156102a657600080fd5b506102c160048036038101906102bc919061346b565b61093d565b005b3480156102cf57600080fd5b506102ea60048036038101906102e59190613571565b61099d565b6040516102f79190614162565b60405180910390f35b34801561030c57600080fd5b50610315610a42565b6040516103229190614162565b60405180910390f35b34801561033757600080fd5b50610352600480360381019061034d919061346b565b610a48565b005b34801561036057600080fd5b5061037b60048036038101906103769190613406565b610a68565b6040516103889190613dc3565b60405180910390f35b34801561039d57600080fd5b506103a6610b62565b005b3480156103b457600080fd5b506103cf60048036038101906103ca9190613640565b610e8a565b6040516103dc9190614162565b60405180910390f35b3480156103f157600080fd5b506103fa610f21565b6040516104079190614162565b60405180910390f35b34801561041c57600080fd5b5061043760048036038101906104329190613640565b610f32565b6040516104449190613d5c565b60405180910390f35b34801561045957600080fd5b50610474600480360381019061046f9190613406565b610fe4565b6040516104819190614162565b60405180910390f35b34801561049657600080fd5b5061049f61109c565b6040516104ac9190614162565b60405180910390f35b3480156104c157600080fd5b506104ca6110a1565b005b3480156104d857600080fd5b506104e1611129565b6040516104ee9190614162565b60405180910390f35b34801561050357600080fd5b5061050c61112e565b6040516105199190613d5c565b60405180910390f35b34801561052e57600080fd5b50610537611158565b6040516105449190613e00565b60405180910390f35b61056760048036038101906105629190613640565b6111ea565b005b34801561057557600080fd5b50610590600480360381019061058b9190613535565b611412565b005b34801561059e57600080fd5b506105b960048036038101906105b491906134ba565b611428565b005b3480156105c757600080fd5b506105e260048036038101906105dd9190613640565b61148a565b6040516105ef9190613e00565b60405180910390f35b34801561060457600080fd5b5061061f600480360381019061061a919061342f565b611aa9565b60405161062c9190613de5565b60405180910390f35b34801561064157600080fd5b5061065c60048036038101906106579190613406565b611b3d565b005b34801561066a57600080fd5b50610685600480360381019061068091906135ad565b611c35565b005b60007f780e9d63000000000000000000000000000000000000000000000000000000007bffffffffffffffffffffffffffffffffffffffffffffffffffffffff1916827bffffffffffffffffffffffffffffffffffffffffffffffffffffffff191614806106fa57506106f982611ead565b5b9050919050565b60606000805461071090614477565b80601f016020809104026020016040519081016040528092919081815260200182805461073c90614477565b80156107895780601f1061075e57610100808354040283529160200191610789565b820191906000526020600020905b81548152906001019060200180831161076c57829003601f168201915b5050505050905090565b600061079e82611f8f565b6107dd576040517f08c379a00000000000000000000000000000000000000000000000000000000081526004016107d490614022565b60405180910390fd5b6004600083815260200190815260200160002060009054906101000a900473ffffffffffffffffffffffffffffffffffffffff169050919050565b600061082382610f32565b90508073ffffffffffffffffffffffffffffffffffffffff168373ffffffffffffffffffffffffffffffffffffffff161415610894576040517f08c379a000000000000000000000000000000000000000000000000000000000815260040161088b906140a2565b60405180910390fd5b8073ffffffffffffffffffffffffffffffffffffffff166108b3611ffb565b73ffffffffffffffffffffffffffffffffffffffff1614806108e257506108e1816108dc611ffb565b611aa9565b5b610921576040517f08c379a000000000000000000000000000000000000000000000000000000000815260040161091890613f62565b60405180910390fd5b61092b8383612003565b505050565b6000600880549050905090565b61094e610948611ffb565b826120bc565b61098d576040517f08c379a0000000000000000000000000000000000000000000000000000000008152600401610984906140c2565b60405180910390fd5b61099883838361219a565b505050565b60006109a883610fe4565b82106109e9576040517f08c379a00000000000000000000000000000000000000000000000000000000081526004016109e090613e42565b60405180910390fd5b600660008473ffffffffffffffffffffffffffffffffffffffff1673ffffffffffffffffffffffffffffffffffffffff168152602001908152602001600020600083815260200190815260200160002054905092915050565b61010081565b610a6383838360405180602001604052806000815250611428565b505050565b60606000610a7583610fe4565b905060008167ffffffffffffffff811115610ab9577f4e487b7100000000000000000000000000000000000000000000000000000000600052604160045260246000fd5b604051908082528060200260200182016040528015610ae75781602001602082028036833780820191505090505b50905060005b82811015610b5757610aff858261099d565b828281518110610b38577f4e487b7100000000000000000000000000000000000000000000000000000000600052603260045260246000fd5b6020026020010181815250508080610b4f906144da565b915050610aed565b508092505050919050565b610b6a611ffb565b73ffffffffffffffffffffffffffffffffffffffff16610b8861112e565b73ffffffffffffffffffffffffffffffffffffffff1614610bde576040517f08c379a0000000000000000000000000000000000000000000000000000000008152600401610bd590614042565b60405180910390fd5b6002600b541415610c24576040517f08c379a0000000000000000000000000000000000000000000000000000000008152600401610c1b90614122565b60405180910390fd5b6002600b819055506001610c38600c6123f6565b14610c78576040517f08c379a0000000000000000000000000000000000000000000000000000000008152600401610c6f90613f22565b60405180910390fd5b610cf0600d600081548110610cb6577f4e487b7100000000000000000000000000000000000000000000000000000000600052603260045260246000fd5b9060005260206000200160009054906101000a900473ffffffffffffffffffffffffffffffffffffffff16610ceb600c6123f6565b612404565b610cfa600c611e97565b610d72600d600181548110610d38577f4e487b7100000000000000000000000000000000000000000000000000000000600052603260045260246000fd5b9060005260206000200160009054906101000a900473ffffffffffffffffffffffffffffffffffffffff16610d6d600c6123f6565b612404565b610d7c600c611e97565b610df4600d600281548110610dba577f4e487b7100000000000000000000000000000000000000000000000000000000600052603260045260246000fd5b9060005260206000200160009054906101000a900473ffffffffffffffffffffffffffffffffffffffff16610def600c6123f6565b612404565b610dfe600c611e97565b610e76600d600381548110610e3c577f4e487b7100000000000000000000000000000000000000000000000000000000600052603260045260246000fd5b9060005260206000200160009054906101000a900473ffffffffffffffffffffffffffffffffffffffff16610e71600c6123f6565b612404565b610e80600c611e97565b6001600b81905550565b6000610e94610930565b8210610ed5576040517f08c379a0000000000000000000000000000000000000000000000000000000008152600401610ecc906140e2565b60405180910390fd5b60088281548110610f0f577f4e487b7100000000000000000000000000000000000000000000000000000000600052603260045260246000fd5b90600052602060002001549050919050565b6000610f2d600c6123f6565b905090565b6000806002600084815260200190815260200160002060009054906101000a900473ffffffffffffffffffffffffffffffffffffffff169050600073ffffffffffffffffffffffffffffffffffffffff168173ffffffffffffffffffffffffffffffffffffffff161415610fdb576040517f08c379a0000000000000000000000000000000000000000000000000000000008152600401610fd290613fc2565b60405180910390fd5b80915050919050565b60008073ffffffffffffffffffffffffffffffffffffffff168273ffffffffffffffffffffffffffffffffffffffff161415611055576040517f08c379a000000000000000000000000000000000000000000000000000000000815260040161104c90613fa2565b60405180910390fd5b600360008373ffffffffffffffffffffffffffffffffffffffff1673ffffffffffffffffffffffffffffffffffffffff168152602001908152602001600020549050919050565b600a81565b6110a9611ffb565b73ffffffffffffffffffffffffffffffffffffffff166110c761112e565b73ffffffffffffffffffffffffffffffffffffffff161461111d576040517f08c379a000000000000000000000000000000000000000000000000000000000815260040161111490614042565b60405180910390fd5b6111276000612422565b565b600081565b6000600a60009054906101000a900473ffffffffffffffffffffffffffffffffffffffff16905090565b60606001805461116790614477565b80601f016020809104026020016040519081016040528092919081815260200182805461119390614477565b80156111e05780601f106111b5576101008083540402835291602001916111e0565b820191906000526020600020905b8154815290600101906020018083116111c357829003601f168201915b5050505050905090565b6002600b541415611230576040517f08c379a000000000000000000000000000000000000000000000000000000000815260040161122790614122565b60405180910390fd5b6002600b81905550600d80549050611248600c6123f6565b11611288576040517f08c379a000000000000000000000000000000000000000000000000000000000815260040161127f90613f82565b60405180910390fd5b60006001611296600c6123f6565b6112a0919061438d565b905061010081106112e6576040517f08c379a00000000000000000000000000000000000000000000000000000000081526004016112dd90613ec2565b60405180910390fd5b60008211611329576040517f08c379a000000000000000000000000000000000000000000000000000000000815260040161132090614082565b60405180910390fd5b600a82111561136d576040517f08c379a000000000000000000000000000000000000000000000000000000000815260040161136490613e22565b60405180910390fd5b61010061138383836124e890919063ffffffff16565b11156113c4576040517f08c379a00000000000000000000000000000000000000000000000000000000081526004016113bb90613fe2565b60405180910390fd5b60005b828110156114055760006113db600c6123f6565b90506113e7600c611e97565b6113f13382612404565b5080806113fd906144da565b9150506113c7565b50506001600b8190555050565b61142461141d611ffb565b83836124fe565b5050565b611439611433611ffb565b836120bc565b611478576040517f08c379a000000000000000000000000000000000000000000000000000000000815260040161146f906140c2565b60405180910390fd5b6114848484848461266b565b50505050565b6060611494613153565b60006040518060400160405280600481526020017f233030300000000000000000000000000000000000000000000000000000000081525090506000600d80549050851115611518576040518060400160405280600781526020017f234144443845360000000000000000000000000000000000000000000000000081525061154f565b6040518060400160405280600781526020017f23464644373030000000000000000000000000000000000000000000000000008152505b90506000600e6000878152602001908152602001600020805461157190614477565b80601f016020809104026020016040519081016040528092919081815260200182805461159d90614477565b80156115ea5780601f106115bf576101008083540402835291602001916115ea565b820191906000526020600020905b8154815290600101906020018083116115cd57829003601f168201915b5050505050905060405180610120016040528060e88152602001614e5b60e8913984600060078110611645577f4e487b7100000000000000000000000000000000000000000000000000000000600052603260045260246000fd5b60200201819052508284600160078110611688577f4e487b7100000000000000000000000000000000000000000000000000000000600052603260045260246000fd5b60200201819052506040518060400160405280601181526020017f22207374796c653d227374726f6b653a2000000000000000000000000000000081525084600260078110611700577f4e487b7100000000000000000000000000000000000000000000000000000000600052603260045260246000fd5b60200201819052508184600360078110611743577f4e487b7100000000000000000000000000000000000000000000000000000000600052603260045260246000fd5b60200201819052506040518060600160405280603c8152602001614e1f603c91398460046007811061179e577f4e487b7100000000000000000000000000000000000000000000000000000000600052603260045260246000fd5b602002018190525080846005600781106117e1577f4e487b7100000000000000000000000000000000000000000000000000000000600052603260045260246000fd5b60200201819052506040518060400160405280600d81526020017f3c2f746578743e3c2f7376673e0000000000000000000000000000000000000081525084600660078110611859577f4e487b7100000000000000000000000000000000000000000000000000000000600052603260045260246000fd5b602002018190525060008460006007811061189d577f4e487b7100000000000000000000000000000000000000000000000000000000600052603260045260246000fd5b6020020151856001600781106118dc577f4e487b7100000000000000000000000000000000000000000000000000000000600052603260045260246000fd5b60200201518660026007811061191b577f4e487b7100000000000000000000000000000000000000000000000000000000600052603260045260246000fd5b60200201518760036007811061195a577f4e487b7100000000000000000000000000000000000000000000000000000000600052603260045260246000fd5b602002015188600460078110611999577f4e487b7100000000000000000000000000000000000000000000000000000000600052603260045260246000fd5b6020020151896005600781106119d8577f4e487b7100000000000000000000000000000000000000000000000000000000600052603260045260246000fd5b60200201518a600660078110611a17577f4e487b7100000000000000000000000000000000000000000000000000000000600052603260045260246000fd5b6020020151604051602001611a329796959493929190613c64565b60405160208183030381529060405290506000611a7783611a52846126c7565b604051602001611a63929190613cc9565b6040516020818303038152906040526126c7565b905080604051602001611a8a9190613d3a565b6040516020818303038152906040529150819650505050505050919050565b6000600560008473ffffffffffffffffffffffffffffffffffffffff1673ffffffffffffffffffffffffffffffffffffffff16815260200190815260200160002060008373ffffffffffffffffffffffffffffffffffffffff1673ffffffffffffffffffffffffffffffffffffffff16815260200190815260200160002060009054906101000a900460ff16905092915050565b611b45611ffb565b73ffffffffffffffffffffffffffffffffffffffff16611b6361112e565b73ffffffffffffffffffffffffffffffffffffffff1614611bb9576040517f08c379a0000000000000000000000000000000000000000000000000000000008152600401611bb090614042565b60405180910390fd5b600073ffffffffffffffffffffffffffffffffffffffff168173ffffffffffffffffffffffffffffffffffffffff161415611c29576040517f08c379a0000000000000000000000000000000000000000000000000000000008152600401611c2090613e82565b60405180910390fd5b611c3281612422565b50565b611c3d611ffb565b73ffffffffffffffffffffffffffffffffffffffff16611c5b61112e565b73ffffffffffffffffffffffffffffffffffffffff1614611cb1576040517f08c379a0000000000000000000000000000000000000000000000000000000008152600401611ca890614042565b60405180910390fd5b6002600b541415611cf7576040517f08c379a0000000000000000000000000000000000000000000000000000000008152600401611cee90614122565b60405180910390fd5b6002600b819055506001611d0b600c6123f6565b14611d4b576040517f08c379a0000000000000000000000000000000000000000000000000000000008152600401611d4290613f22565b60405180910390fd5b61010081511115611d91576040517f08c379a0000000000000000000000000000000000000000000000000000000008152600401611d8890614142565b60405180910390fd5b600060019050600190505b81518111611e8b576000600e60008381526020019081526020016000208054611dc490614477565b905014611e06576040517f08c379a0000000000000000000000000000000000000000000000000000000008152600401611dfd90614102565b60405180910390fd5b81600182611e14919061438d565b81518110611e4b577f4e487b7100000000000000000000000000000000000000000000000000000000600052603260045260246000fd5b6020026020010151600e60008381526020019081526020016000209080519060200190611e7992919061317a565b5080611e84906144da565b9050611d9c565b506001600b8190555050565b6001816000016000828254019250508190555050565b60007f80ac58cd000000000000000000000000000000000000000000000000000000007bffffffffffffffffffffffffffffffffffffffffffffffffffffffff1916827bffffffffffffffffffffffffffffffffffffffffffffffffffffffff19161480611f7857507f5b5e139f000000000000000000000000000000000000000000000000000000007bffffffffffffffffffffffffffffffffffffffffffffffffffffffff1916827bffffffffffffffffffffffffffffffffffffffffffffffffffffffff1916145b80611f885750611f8782612885565b5b9050919050565b60008073ffffffffffffffffffffffffffffffffffffffff166002600084815260200190815260200160002060009054906101000a900473ffffffffffffffffffffffffffffffffffffffff1673ffffffffffffffffffffffffffffffffffffffff1614159050919050565b600033905090565b816004600083815260200190815260200160002060006101000a81548173ffffffffffffffffffffffffffffffffffffffff021916908373ffffffffffffffffffffffffffffffffffffffff160217905550808273ffffffffffffffffffffffffffffffffffffffff1661207683610f32565b73ffffffffffffffffffffffffffffffffffffffff167f8c5be1e5ebec7d5bd14f71427d1e84f3dd0314c0f7b2291e5b200ac8c7c3b92560405160405180910390a45050565b60006120c782611f8f565b612106576040517f08c379a00000000000000000000000000000000000000000000000000000000081526004016120fd90613f42565b60405180910390fd5b600061211183610f32565b90508073ffffffffffffffffffffffffffffffffffffffff168473ffffffffffffffffffffffffffffffffffffffff16148061218057508373ffffffffffffffffffffffffffffffffffffffff1661216884610793565b73ffffffffffffffffffffffffffffffffffffffff16145b8061219157506121908185611aa9565b5b91505092915050565b8273ffffffffffffffffffffffffffffffffffffffff166121ba82610f32565b73ffffffffffffffffffffffffffffffffffffffff1614612210576040517f08c379a000000000000000000000000000000000000000000000000000000000815260040161220790614062565b60405180910390fd5b600073ffffffffffffffffffffffffffffffffffffffff168273ffffffffffffffffffffffffffffffffffffffff161415612280576040517f08c379a000000000000000000000000000000000000000000000000000000000815260040161227790613ee2565b60405180910390fd5b61228b8383836128ef565b612296600082612003565b6001600360008573ffffffffffffffffffffffffffffffffffffffff1673ffffffffffffffffffffffffffffffffffffffff16815260200190815260200160002060008282546122e6919061438d565b925050819055506001600360008473ffffffffffffffffffffffffffffffffffffffff1673ffffffffffffffffffffffffffffffffffffffff168152602001908152602001600020600082825461233d91906142ac565b92505081905550816002600083815260200190815260200160002060006101000a81548173ffffffffffffffffffffffffffffffffffffffff021916908373ffffffffffffffffffffffffffffffffffffffff160217905550808273ffffffffffffffffffffffffffffffffffffffff168473ffffffffffffffffffffffffffffffffffffffff167fddf252ad1be2c89b69c2b068fc378daa952ba7f163c4a11628f55a4df523b3ef60405160405180910390a4505050565b600081600001549050919050565b61241e828260405180602001604052806000815250612a03565b5050565b6000600a60009054906101000a900473ffffffffffffffffffffffffffffffffffffffff16905081600a60006101000a81548173ffffffffffffffffffffffffffffffffffffffff021916908373ffffffffffffffffffffffffffffffffffffffff1602179055508173ffffffffffffffffffffffffffffffffffffffff168173ffffffffffffffffffffffffffffffffffffffff167f8be0079c531659141344cd1fd0a4f28419497f9722a3daafe3b4186f6b6457e060405160405180910390a35050565b600081836124f691906142ac565b905092915050565b8173ffffffffffffffffffffffffffffffffffffffff168373ffffffffffffffffffffffffffffffffffffffff16141561256d576040517f08c379a000000000000000000000000000000000000000000000000000000000815260040161256490613f02565b60405180910390fd5b80600560008573ffffffffffffffffffffffffffffffffffffffff1673ffffffffffffffffffffffffffffffffffffffff16815260200190815260200160002060008473ffffffffffffffffffffffffffffffffffffffff1673ffffffffffffffffffffffffffffffffffffffff16815260200190815260200160002060006101000a81548160ff0219169083151502179055508173ffffffffffffffffffffffffffffffffffffffff168373ffffffffffffffffffffffffffffffffffffffff167f17307eab39ab6107e8899845ad3d59bd9653f200f220920489ca2b5937696c318360405161265e9190613de5565b60405180910390a3505050565b61267684848461219a565b61268284848484612a5e565b6126c1576040517f08c379a00000000000000000000000000000000000000000000000000000000081526004016126b890613e62565b60405180910390fd5b50505050565b606060008251905060008114156126f05760405180602001604052806000815250915050612880565b6000600360028361270191906142ac565b61270b9190614302565b60046127179190614333565b9050600060208261272891906142ac565b67ffffffffffffffff811115612767577f4e487b7100000000000000000000000000000000000000000000000000000000600052604160045260246000fd5b6040519080825280601f01601f1916602001820160405280156127995781602001600182028036833780820191505090505b5090506000604051806060016040528060408152602001614f43604091399050600181016020830160005b8681101561283d5760038101905062ffffff818a015116603f8160121c168401518060081b905060ff603f83600c1c1686015116810190508060081b905060ff603f8360061c1686015116810190508060081b905060ff603f831686015116810190508060e01b905080845260048401935050506127c4565b506003860660018114612857576002811461286757612872565b613d3d60f01b6002830352612872565b603d60f81b60018303525b508484525050819450505050505b919050565b60007f01ffc9a7000000000000000000000000000000000000000000000000000000007bffffffffffffffffffffffffffffffffffffffffffffffffffffffff1916827bffffffffffffffffffffffffffffffffffffffffffffffffffffffff1916149050919050565b6128fa838383612bf5565b600073ffffffffffffffffffffffffffffffffffffffff168373ffffffffffffffffffffffffffffffffffffffff16141561293d5761293881612bfa565b61297c565b8173ffffffffffffffffffffffffffffffffffffffff168373ffffffffffffffffffffffffffffffffffffffff161461297b5761297a8382612c43565b5b5b600073ffffffffffffffffffffffffffffffffffffffff168273ffffffffffffffffffffffffffffffffffffffff1614156129bf576129ba81612db0565b6129fe565b8273ffffffffffffffffffffffffffffffffffffffff168273ffffffffffffffffffffffffffffffffffffffff16146129fd576129fc8282612ef3565b5b5b505050565b612a0d8383612f72565b612a1a6000848484612a5e565b612a59576040517f08c379a0000000000000000000000000000000000000000000000000000000008152600401612a5090613e62565b60405180910390fd5b505050565b6000612a7f8473ffffffffffffffffffffffffffffffffffffffff16613140565b15612be8578373ffffffffffffffffffffffffffffffffffffffff1663150b7a02612aa8611ffb565b8786866040518563ffffffff1660e01b8152600401612aca9493929190613d77565b602060405180830381600087803b158015612ae457600080fd5b505af1925050508015612b1557506040513d601f19601f82011682018060405250810190612b129190613617565b60015b612b98573d8060008114612b45576040519150601f19603f3d011682016040523d82523d6000602084013e612b4a565b606091505b50600081511415612b90576040517f08c379a0000000000000000000000000000000000000000000000000000000008152600401612b8790613e62565b60405180910390fd5b805181602001fd5b63150b7a0260e01b7bffffffffffffffffffffffffffffffffffffffffffffffffffffffff1916817bffffffffffffffffffffffffffffffffffffffffffffffffffffffff191614915050612bed565b600190505b949350505050565b505050565b6008805490506009600083815260200190815260200160002081905550600881908060018154018082558091505060019003906000526020600020016000909190919091505550565b60006001612c5084610fe4565b612c5a919061438d565b9050600060076000848152602001908152602001600020549050818114612d3f576000600660008673ffffffffffffffffffffffffffffffffffffffff1673ffffffffffffffffffffffffffffffffffffffff168152602001908152602001600020600084815260200190815260200160002054905080600660008773ffffffffffffffffffffffffffffffffffffffff1673ffffffffffffffffffffffffffffffffffffffff168152602001908152602001600020600084815260200190815260200160002081905550816007600083815260200190815260200160002081905550505b6007600084815260200190815260200160002060009055600660008573ffffffffffffffffffffffffffffffffffffffff1673ffffffffffffffffffffffffffffffffffffffff16815260200190815260200160002060008381526020019081526020016000206000905550505050565b60006001600880549050612dc4919061438d565b9050600060096000848152602001908152602001600020549050600060088381548110612e1a577f4e487b7100000000000000000000000000000000000000000000000000000000600052603260045260246000fd5b906000526020600020015490508060088381548110612e62577f4e487b7100000000000000000000000000000000000000000000000000000000600052603260045260246000fd5b906000526020600020018190555081600960008381526020019081526020016000208190555060096000858152602001908152602001600020600090556008805480612ed7577f4e487b7100000000000000000000000000000000000000000000000000000000600052603160045260246000fd5b6001900381819060005260206000200160009055905550505050565b6000612efe83610fe4565b905081600660008573ffffffffffffffffffffffffffffffffffffffff1673ffffffffffffffffffffffffffffffffffffffff168152602001908152602001600020600083815260200190815260200160002081905550806007600084815260200190815260200160002081905550505050565b600073ffffffffffffffffffffffffffffffffffffffff168273ffffffffffffffffffffffffffffffffffffffff161415612fe2576040517f08c379a0000000000000000000000000000000000000000000000000000000008152600401612fd990614002565b60405180910390fd5b612feb81611f8f565b1561302b576040517f08c379a000000000000000000000000000000000000000000000000000000000815260040161302290613ea2565b60405180910390fd5b613037600083836128ef565b6001600360008473ffffffffffffffffffffffffffffffffffffffff1673ffffffffffffffffffffffffffffffffffffffff168152602001908152602001600020600082825461308791906142ac565b92505081905550816002600083815260200190815260200160002060006101000a81548173ffffffffffffffffffffffffffffffffffffffff021916908373ffffffffffffffffffffffffffffffffffffffff160217905550808273ffffffffffffffffffffffffffffffffffffffff16600073ffffffffffffffffffffffffffffffffffffffff167fddf252ad1be2c89b69c2b068fc378daa952ba7f163c4a11628f55a4df523b3ef60405160405180910390a45050565b600080823b905060008111915050919050565b6040518060e001604052806007905b60608152602001906001900390816131625790505090565b82805461318690614477565b90600052602060002090601f0160209004810192826131a857600085556131ef565b82601f106131c157805160ff19168380011785556131ef565b828001600101855582156131ef579182015b828111156131ee5782518255916020019190600101906131d3565b5b5090506131fc9190613200565b5090565b5b80821115613219576000816000905550600101613201565b5090565b600061323061322b846141a2565b61417d565b9050808382526020820190508285602086028201111561324f57600080fd5b60005b8581101561329957813567ffffffffffffffff81111561327157600080fd5b80860161327e89826133c7565b85526020850194506020840193505050600181019050613252565b5050509392505050565b60006132b66132b1846141ce565b61417d565b9050828152602081018484840111156132ce57600080fd5b6132d9848285614435565b509392505050565b60006132f46132ef846141ff565b61417d565b90508281526020810184848401111561330c57600080fd5b613317848285614435565b509392505050565b60008135905061332e81614dc2565b92915050565b600082601f83011261334557600080fd5b813561335584826020860161321d565b91505092915050565b60008135905061336d81614dd9565b92915050565b60008135905061338281614df0565b92915050565b60008151905061339781614df0565b92915050565b600082601f8301126133ae57600080fd5b81356133be8482602086016132a3565b91505092915050565b600082601f8301126133d857600080fd5b81356133e88482602086016132e1565b91505092915050565b60008135905061340081614e07565b92915050565b60006020828403121561341857600080fd5b60006134268482850161331f565b91505092915050565b6000806040838503121561344257600080fd5b60006134508582860161331f565b92505060206134618582860161331f565b9150509250929050565b60008060006060848603121561348057600080fd5b600061348e8682870161331f565b935050602061349f8682870161331f565b92505060406134b0868287016133f1565b9150509250925092565b600080600080608085870312156134d057600080fd5b60006134de8782880161331f565b94505060206134ef8782880161331f565b9350506040613500878288016133f1565b925050606085013567ffffffffffffffff81111561351d57600080fd5b6135298782880161339d565b91505092959194509250565b6000806040838503121561354857600080fd5b60006135568582860161331f565b92505060206135678582860161335e565b9150509250929050565b6000806040838503121561358457600080fd5b60006135928582860161331f565b92505060206135a3858286016133f1565b9150509250929050565b6000602082840312156135bf57600080fd5b600082013567ffffffffffffffff8111156135d957600080fd5b6135e584828501613334565b91505092915050565b60006020828403121561360057600080fd5b600061360e84828501613373565b91505092915050565b60006020828403121561362957600080fd5b600061363784828501613388565b91505092915050565b60006020828403121561365257600080fd5b6000613660848285016133f1565b91505092915050565b60006136758383613c46565b60208301905092915050565b61368a816143c1565b82525050565b600061369b82614240565b6136a5818561426e565b93506136b083614230565b8060005b838110156136e15781516136c88882613669565b97506136d383614261565b9250506001810190506136b4565b5085935050505092915050565b6136f7816143d3565b82525050565b60006137088261424b565b613712818561427f565b9350613722818560208601614444565b61372b816145df565b840191505092915050565b600061374182614256565b61374b8185614290565b935061375b818560208601614444565b613764816145df565b840191505092915050565b600061377a82614256565b61378481856142a1565b9350613794818560208601614444565b80840191505092915050565b60006137ad6009836142a1565b91506137b8826145f0565b600982019050919050565b60006137d0602683614290565b91506137db82614619565b604082019050919050565b60006137f3602b83614290565b91506137fe82614668565b604082019050919050565b6000613816603283614290565b9150613821826146b7565b604082019050919050565b6000613839602683614290565b915061384482614706565b604082019050919050565b600061385c601c83614290565b915061386782614755565b602082019050919050565b600061387f600e83614290565b915061388a8261477e565b602082019050919050565b60006138a2602483614290565b91506138ad826147a7565b604082019050919050565b60006138c5601983614290565b91506138d0826147f6565b602082019050919050565b60006138e8600e83614290565b91506138f38261481f565b602082019050919050565b600061390b602c83614290565b915061391682614848565b604082019050919050565b600061392e603883614290565b915061393982614897565b604082019050919050565b6000613951601283614290565b915061395c826148e6565b602082019050919050565b6000613974602a83614290565b915061397f8261490f565b604082019050919050565b6000613997602983614290565b91506139a28261495e565b604082019050919050565b60006139ba603b836142a1565b91506139c5826149ad565b603b82019050919050565b60006139dd601283614290565b91506139e8826149fc565b602082019050919050565b6000613a006002836142a1565b9150613a0b82614a25565b600282019050919050565b6000613a23602083614290565b9150613a2e82614a4e565b602082019050919050565b6000613a46600d836142a1565b9150613a5182614a77565b600d82019050919050565b6000613a69602c83614290565b9150613a7482614aa0565b604082019050919050565b6000613a8c6012836142a1565b9150613a9782614aef565b601282019050919050565b6000613aaf602083614290565b9150613aba82614b18565b602082019050919050565b6000613ad2602983614290565b9150613add82614b41565b604082019050919050565b6000613af56024836142a1565b9150613b0082614b90565b602482019050919050565b6000613b18600c83614290565b9150613b2382614bdf565b602082019050919050565b6000613b3b602183614290565b9150613b4682614c08565b604082019050919050565b6000613b5e601d836142a1565b9150613b6982614c57565b601d82019050919050565b6000613b81603183614290565b9150613b8c82614c80565b604082019050919050565b6000613ba4602c83614290565b9150613baf82614ccf565b604082019050919050565b6000613bc7600c83614290565b9150613bd282614d1e565b602082019050919050565b6000613bea601f83614290565b9150613bf582614d47565b602082019050919050565b6000613c0d601a836142a1565b9150613c1882614d70565b601a82019050919050565b6000613c30601f83614290565b9150613c3b82614d99565b602082019050919050565b613c4f8161442b565b82525050565b613c5e8161442b565b82525050565b6000613c70828a61376f565b9150613c7c828961376f565b9150613c88828861376f565b9150613c94828761376f565b9150613ca0828661376f565b9150613cac828561376f565b9150613cb8828461376f565b915081905098975050505050505050565b6000613cd4826137a0565b9150613ce0828561376f565b9150613ceb82613a7f565b9150613cf682613ae8565b9150613d01826139ad565b9150613d0c82613a39565b9150613d1782613c00565b9150613d23828461376f565b9150613d2e826139f3565b91508190509392505050565b6000613d4582613b51565b9150613d51828461376f565b915081905092915050565b6000602082019050613d716000830184613681565b92915050565b6000608082019050613d8c6000830187613681565b613d996020830186613681565b613da66040830185613c55565b8181036060830152613db881846136fd565b905095945050505050565b60006020820190508181036000830152613ddd8184613690565b905092915050565b6000602082019050613dfa60008301846136ee565b92915050565b60006020820190508181036000830152613e1a8184613736565b905092915050565b60006020820190508181036000830152613e3b816137c3565b9050919050565b60006020820190508181036000830152613e5b816137e6565b9050919050565b60006020820190508181036000830152613e7b81613809565b9050919050565b60006020820190508181036000830152613e9b8161382c565b9050919050565b60006020820190508181036000830152613ebb8161384f565b9050919050565b60006020820190508181036000830152613edb81613872565b9050919050565b60006020820190508181036000830152613efb81613895565b9050919050565b60006020820190508181036000830152613f1b816138b8565b9050919050565b60006020820190508181036000830152613f3b816138db565b9050919050565b60006020820190508181036000830152613f5b816138fe565b9050919050565b60006020820190508181036000830152613f7b81613921565b9050919050565b60006020820190508181036000830152613f9b81613944565b9050919050565b60006020820190508181036000830152613fbb81613967565b9050919050565b60006020820190508181036000830152613fdb8161398a565b9050919050565b60006020820190508181036000830152613ffb816139d0565b9050919050565b6000602082019050818103600083015261401b81613a16565b9050919050565b6000602082019050818103600083015261403b81613a5c565b9050919050565b6000602082019050818103600083015261405b81613aa2565b9050919050565b6000602082019050818103600083015261407b81613ac5565b9050919050565b6000602082019050818103600083015261409b81613b0b565b9050919050565b600060208201905081810360008301526140bb81613b2e565b9050919050565b600060208201905081810360008301526140db81613b74565b9050919050565b600060208201905081810360008301526140fb81613b97565b9050919050565b6000602082019050818103600083015261411b81613bba565b9050919050565b6000602082019050818103600083015261413b81613bdd565b9050919050565b6000602082019050818103600083015261415b81613c23565b9050919050565b60006020820190506141776000830184613c55565b92915050565b6000614187614198565b905061419382826144a9565b919050565b6000604051905090565b600067ffffffffffffffff8211156141bd576141bc6145b0565b5b602082029050602081019050919050565b600067ffffffffffffffff8211156141e9576141e86145b0565b5b6141f2826145df565b9050602081019050919050565b600067ffffffffffffffff82111561421a576142196145b0565b5b614223826145df565b9050602081019050919050565b6000819050602082019050919050565b600081519050919050565b600081519050919050565b600081519050919050565b6000602082019050919050565b600082825260208201905092915050565b600082825260208201905092915050565b600082825260208201905092915050565b600081905092915050565b60006142b78261442b565b91506142c28361442b565b9250827fffffffffffffffffffffffffffffffffffffffffffffffffffffffffffffffff038211156142f7576142f6614523565b5b828201905092915050565b600061430d8261442b565b91506143188361442b565b92508261432857614327614552565b5b828204905092915050565b600061433e8261442b565b91506143498361442b565b9250817fffffffffffffffffffffffffffffffffffffffffffffffffffffffffffffffff048311821515161561438257614381614523565b5b828202905092915050565b60006143988261442b565b91506143a38361442b565b9250828210156143b6576143b5614523565b5b828203905092915050565b60006143cc8261440b565b9050919050565b60008115159050919050565b60007fffffffff0000000000000000000000000000000000000000000000000000000082169050919050565b600073ffffffffffffffffffffffffffffffffffffffff82169050919050565b6000819050919050565b82818337600083830152505050565b60005b83811015614462578082015181840152602081019050614447565b83811115614471576000848401525b50505050565b6000600282049050600182168061448f57607f821691505b602082108114156144a3576144a2614581565b5b50919050565b6144b2826145df565b810181811067ffffffffffffffff821117156144d1576144d06145b0565b5b80604052505050565b60006144e58261442b565b91507fffffffffffffffffffffffffffffffffffffffffffffffffffffffffffffffff82141561451857614517614523565b5b600182019050919050565b7f4e487b7100000000000000000000000000000000000000000000000000000000600052601160045260246000fd5b7f4e487b7100000000000000000000000000000000000000000000000000000000600052601260045260246000fd5b7f4e487b7100000000000000000000000000000000000000000000000000000000600052602260045260246000fd5b7f4e487b7100000000000000000000000000000000000000000000000000000000600052604160045260246000fd5b6000601f19601f8301169050919050565b7f7b226e616d65223a220000000000000000000000000000000000000000000000600082015250565b7f596f75206d6179206e6f74206275792074686174206d616e79204e465473206160008201527f74206f6e63650000000000000000000000000000000000000000000000000000602082015250565b7f455243373231456e756d657261626c653a206f776e657220696e646578206f7560008201527f74206f6620626f756e6473000000000000000000000000000000000000000000602082015250565b7f4552433732313a207472616e7366657220746f206e6f6e20455243373231526560008201527f63656976657220696d706c656d656e7465720000000000000000000000000000602082015250565b7f4f776e61626c653a206e6577206f776e657220697320746865207a65726f206160008201527f6464726573730000000000000000000000000000000000000000000000000000602082015250565b7f4552433732313a20746f6b656e20616c7265616479206d696e74656400000000600082015250565b7f53616c652068617320656e646564000000000000000000000000000000000000600082015250565b7f4552433732313a207472616e7366657220746f20746865207a65726f2061646460008201527f7265737300000000000000000000000000000000000000000000000000000000602082015250565b7f4552433732313a20617070726f766520746f2063616c6c657200000000000000600082015250565b7f4f6e6c7920617420737461727421000000000000000000000000000000000000600082015250565b7f4552433732313a206f70657261746f7220717565727920666f72206e6f6e657860008201527f697374656e7420746f6b656e0000000000000000000000000000000000000000602082015250565b7f4552433732313a20617070726f76652063616c6c6572206973206e6f74206f7760008201527f6e6572206e6f7220617070726f76656420666f7220616c6c0000000000000000602082015250565b7f4f776e65727320636c61696d2066697273740000000000000000000000000000600082015250565b7f4552433732313a2062616c616e636520717565727920666f7220746865207a6560008201527f726f206164647265737300000000000000000000000000000000000000000000602082015250565b7f4552433732313a206f776e657220717565727920666f72206e6f6e657869737460008201527f656e7420746f6b656e0000000000000000000000000000000000000000000000602082015250565b7f20526170204e616d65204e46542067656e65726174657320612072616e646f6d60008201527f20726170206e616d6520666f7220796f75206f6e2d636861696e2e0000000000602082015250565b7f45786365656473206d617820737570706c790000000000000000000000000000600082015250565b7f227d000000000000000000000000000000000000000000000000000000000000600082015250565b7f4552433732313a206d696e7420746f20746865207a65726f2061646472657373600082015250565b7f222c2022696d616765223a202200000000000000000000000000000000000000600082015250565b7f4552433732313a20617070726f76656420717565727920666f72206e6f6e657860008201527f697374656e7420746f6b656e0000000000000000000000000000000000000000602082015250565b7f222c20226465736372697074696f6e223a220000000000000000000000000000600082015250565b7f4f776e61626c653a2063616c6c6572206973206e6f7420746865206f776e6572600082015250565b7f4552433732313a207472616e73666572206f6620746f6b656e2074686174206960008201527f73206e6f74206f776e0000000000000000000000000000000000000000000000602082015250565b7f4576657279207765623320726170706572206e6565647320612077656233206e60008201527f616d652e00000000000000000000000000000000000000000000000000000000602082015250565b7f43616e6e6f742062757920300000000000000000000000000000000000000000600082015250565b7f4552433732313a20617070726f76616c20746f2063757272656e74206f776e6560008201527f7200000000000000000000000000000000000000000000000000000000000000602082015250565b7f646174613a6170706c69636174696f6e2f6a736f6e3b6261736536342c000000600082015250565b7f4552433732313a207472616e736665722063616c6c6572206973206e6f74206f60008201527f776e6572206e6f7220617070726f766564000000000000000000000000000000602082015250565b7f455243373231456e756d657261626c653a20676c6f62616c20696e646578206f60008201527f7574206f6620626f756e64730000000000000000000000000000000000000000602082015250565b7f416c726561647920736574210000000000000000000000000000000000000000600082015250565b7f5265656e7472616e637947756172643a207265656e7472616e742063616c6c00600082015250565b7f646174613a696d6167652f7376672b786d6c3b6261736536342c000000000000600082015250565b7f43616e2774206d696e74206d6f7265207468616e204d41585f535550504c5900600082015250565b614dcb816143c1565b8114614dd657600080fd5b50565b614de2816143d3565b8114614ded57600080fd5b50565b614df9816143df565b8114614e0457600080fd5b50565b614e108161442b565b8114614e1b57600080fd5b5056fe3b207374726f6b652d77696474683a2031323b22202f3e3c7465787420636c6173733d22626173652220793d22393570782220783d2235307078223e3c73766720786d6c6e733d22687474703a2f2f7777772e77332e6f72672f323030302f73766722207072657365727665417370656374526174696f3d22784d696e594d696e206d656574222076696577426f783d223020302033353020323030223e3c7374796c653e2e62617365207b66696c6c3a2077686974653b20666f6e742d66616d696c793a206d6f6e6f73706163653b20666f6e742d73697a653a203230707820706f736974696f6e3a206162736f6c7574653b7d3c2f7374796c653e3c726563742077696474683d223130302522206865696768743d2231303025222066696c6c3d224142434445464748494a4b4c4d4e4f505152535455565758595a6162636465666768696a6b6c6d6e6f707172737475767778797a303132333435363738392b2fa26469706673582212205adf5929589bbc785be604e704dcf69cfca7b4f404570116d26a6bb3eb582bd964736f6c63430008040033",
  "linkReferences": {},
  "deployedLinkReferences": {}
}